{
	"data": {
		"bytecode": {
			"linkReferences": {},
			"object": "608060405260026004553480156200001657600080fd5b5060405162001caf38038062001caf83398181016040528101906200003c91906200012b565b6000811162000082576040517f08c379a00000000000000000000000000000000000000000000000000000000081526004016200007990620001be565b60405180910390fd5b336000806101000a81548173ffffffffffffffffffffffffffffffffffffffff021916908373ffffffffffffffffffffffffffffffffffffffff160217905550603c81620000d191906200020f565b42620000de91906200025a565b6001819055505062000295565b600080fd5b6000819050919050565b6200010581620000f0565b81146200011157600080fd5b50565b6000815190506200012581620000fa565b92915050565b600060208284031215620001445762000143620000eb565b5b6000620001548482850162000114565b91505092915050565b600082825260208201905092915050565b7f4475726163696f6e20646562652073657220706f736974697661000000000000600082015250565b6000620001a6601a836200015d565b9150620001b3826200016e565b602082019050919050565b60006020820190508181036000830152620001d98162000197565b9050919050565b7f4e487b7100000000000000000000000000000000000000000000000000000000600052601160045260246000fd5b60006200021c82620000f0565b91506200022983620000f0565b92508282026200023981620000f0565b91508282048414831517620002535762000252620001e0565b5b5092915050565b60006200026782620000f0565b91506200027483620000f0565b92508282019050808211156200028f576200028e620001e0565b5b92915050565b611a0a80620002a56000396000f3fe6080604052600436106100dd5760003560e01c806356afff7c1161007f5780639114bde8116100595780639114bde814610293578063acdd4dba146102be578063c442a99f146102d5578063ffbfc18914610300576100dd565b806356afff7c146101ec578063753dcaeb1461022a5780637fbd9b6914610256576100dd565b80631c33274f116100bb5780631c33274f1461014f5780633c4f81cd1461018c5780633ec059d7146101b75780634fa0f827146101c1576100dd565b80630851eac2146100e25780630dfe4c35146100f957806313a83eaf14610124575b600080fd5b3480156100ee57600080fd5b506100f761032b565b005b34801561010557600080fd5b5061010e610815565b60405161011b9190610fd0565b60405180910390f35b34801561013057600080fd5b5061013961081b565b6040516101469190610fd0565b60405180910390f35b34801561015b57600080fd5b506101766004803603810190610171919061104e565b610821565b6040516101839190610fd0565b60405180910390f35b34801561019857600080fd5b506101a1610839565b6040516101ae919061109c565b60405180910390f35b6101bf61085d565b005b3480156101cd57600080fd5b506101d6610bb1565b6040516101e39190610fd0565b60405180910390f35b3480156101f857600080fd5b50610213600480360381019061020e91906110e3565b610bb7565b60405161022192919061111f565b60405180910390f35b34801561023657600080fd5b5061023f610c0b565b60405161024d92919061111f565b60405180910390f35b34801561026257600080fd5b5061027d6004803603810190610278919061104e565b610c3c565b60405161028a9190610fd0565b60405180910390f35b34801561029f57600080fd5b506102a8610c54565b6040516102b59190611148565b60405180910390f35b3480156102ca57600080fd5b506102d3610c7a565b005b3480156102e157600080fd5b506102ea610ee5565b6040516102f7919061125f565b60405180910390f35b34801561030c57600080fd5b50610315610fa4565b604051610322919061129c565b60405180910390f35b60008054906101000a900473ffffffffffffffffffffffffffffffffffffffff1673ffffffffffffffffffffffffffffffffffffffff163373ffffffffffffffffffffffffffffffffffffffff16146103b9576040517f08c379a00000000000000000000000000000000000000000000000000000000081526004016103b09061133a565b60405180910390fd5b6001544210156103fe576040517f08c379a00000000000000000000000000000000000000000000000000000000081526004016103f5906113a6565b60405180910390fd5b600860009054906101000a900460ff161561044e576040517f08c379a000000000000000000000000000000000000000000000000000000000815260040161044590611412565b60405180910390fd5b6001600860006101000a81548160ff0219169083151502179055506000600254905060006064600454836104829190611461565b61048c91906114d2565b90506000818361049c9190611503565b905060008060009054906101000a900473ffffffffffffffffffffffffffffffffffffffff1673ffffffffffffffffffffffffffffffffffffffff16826040516104e590611568565b60006040518083038185875af1925050503d8060008114610522576040519150601f19603f3d011682016040523d82523d6000602084013e610527565b606091505b505090508061056b576040517f08c379a0000000000000000000000000000000000000000000000000000000008152600401610562906115ef565b60405180910390fd5b60005b6005805490508110156107b3576000600582815481106105915761059061160f565b5b906000526020600020906002020160000160009054906101000a900473ffffffffffffffffffffffffffffffffffffffff169050600360009054906101000a900473ffffffffffffffffffffffffffffffffffffffff1673ffffffffffffffffffffffffffffffffffffffff168173ffffffffffffffffffffffffffffffffffffffff161415801561066257506000600660008373ffffffffffffffffffffffffffffffffffffffff1673ffffffffffffffffffffffffffffffffffffffff16815260200190815260200160002054115b1561079f576000600660008373ffffffffffffffffffffffffffffffffffffffff1673ffffffffffffffffffffffffffffffffffffffff1681526020019081526020016000205490506000600660008473ffffffffffffffffffffffffffffffffffffffff1673ffffffffffffffffffffffffffffffffffffffff1681526020019081526020016000208190555060008273ffffffffffffffffffffffffffffffffffffffff168260405161071690611568565b60006040518083038185875af1925050503d8060008114610753576040519150601f19603f3d011682016040523d82523d6000602084013e610758565b606091505b505090508061079c576040517f08c379a00000000000000000000000000000000000000000000000000000000081526004016107939061168a565b60405180910390fd5b50505b5080806107ab906116aa565b91505061056e565b507fa3a65b403bdae88eb037f4ecc1d619f436fc3ef6bcbbee3787757164e82883f2600360009054906101000a900473ffffffffffffffffffffffffffffffffffffffff168560405161080792919061111f565b60405180910390a150505050565b60015481565b60025481565b60076020528060005260406000206000915090505481565b60008054906101000a900473ffffffffffffffffffffffffffffffffffffffff1681565b60015442106108a1576040517f08c379a00000000000000000000000000000000000000000000000000000000081526004016108989061173e565b60405180910390fd5b600860009054906101000a900460ff16156108f1576040517f08c379a00000000000000000000000000000000000000000000000000000000081526004016108e8906117aa565b60405180910390fd5b60003411610934576040517f08c379a000000000000000000000000000000000000000000000000000000000815260040161092b90611816565b60405180910390fd5b6000606460056002546109479190611461565b61095191906114d2565b60025461095e9190611836565b90508034116109a2576040517f08c379a0000000000000000000000000000000000000000000000000000000008152600401610999906118dc565b60405180910390fd5b34600660003373ffffffffffffffffffffffffffffffffffffffff1673ffffffffffffffffffffffffffffffffffffffff16815260200190815260200160002060008282546109f19190611836565b9250508190555034600760003373ffffffffffffffffffffffffffffffffffffffff1673ffffffffffffffffffffffffffffffffffffffff16815260200190815260200160002081905550600560405180604001604052803373ffffffffffffffffffffffffffffffffffffffff16815260200134815250908060018154018082558091505060019003906000526020600020906002020160009091909190915060008201518160000160006101000a81548173ffffffffffffffffffffffffffffffffffffffff021916908373ffffffffffffffffffffffffffffffffffffffff1602179055506020820151816001015550503460028190555033600360006101000a81548173ffffffffffffffffffffffffffffffffffffffff021916908373ffffffffffffffffffffffffffffffffffffffff16021790555061025842600154610b3e9190611503565b1015610b605761025860016000828254610b589190611836565b925050819055505b3373ffffffffffffffffffffffffffffffffffffffff167f155d469211f46e4d9ae974606f0878f9aacc6198ba30a1e6b9c8cf5627352fb534604051610ba69190610fd0565b60405180910390a250565b60045481565b60058181548110610bc757600080fd5b90600052602060002090600202016000915090508060000160009054906101000a900473ffffffffffffffffffffffffffffffffffffffff16908060010154905082565b600080600360009054906101000a900473ffffffffffffffffffffffffffffffffffffffff16600254915091509091565b60066020528060005260406000206000915090505481565b600360009054906101000a900473ffffffffffffffffffffffffffffffffffffffff1681565b6001544210610cbe576040517f08c379a0000000000000000000000000000000000000000000000000000000008152600401610cb59061173e565b60405180910390fd5b600860009054906101000a900460ff1615610d0e576040517f08c379a0000000000000000000000000000000000000000000000000000000008152600401610d05906117aa565b60405180910390fd5b6000600760003373ffffffffffffffffffffffffffffffffffffffff1673ffffffffffffffffffffffffffffffffffffffff16815260200190815260200160002054600660003373ffffffffffffffffffffffffffffffffffffffff1673ffffffffffffffffffffffffffffffffffffffff16815260200190815260200160002054610d9a9190611503565b905060008111610ddf576040517f08c379a0000000000000000000000000000000000000000000000000000000008152600401610dd690611948565b60405180910390fd5b80600660003373ffffffffffffffffffffffffffffffffffffffff1673ffffffffffffffffffffffffffffffffffffffff1681526020019081526020016000206000828254610e2e9190611503565b9250508190555060003373ffffffffffffffffffffffffffffffffffffffff1682604051610e5b90611568565b60006040518083038185875af1925050503d8060008114610e98576040519150601f19603f3d011682016040523d82523d6000602084013e610e9d565b606091505b5050905080610ee1576040517f08c379a0000000000000000000000000000000000000000000000000000000008152600401610ed8906119b4565b60405180910390fd5b5050565b60606005805480602002602001604051908101604052809291908181526020016000905b82821015610f9b57838290600052602060002090600202016040518060400160405290816000820160009054906101000a900473ffffffffffffffffffffffffffffffffffffffff1673ffffffffffffffffffffffffffffffffffffffff1673ffffffffffffffffffffffffffffffffffffffff16815260200160018201548152505081526020019060010190610f09565b50505050905090565b600860009054906101000a900460ff1681565b6000819050919050565b610fca81610fb7565b82525050565b6000602082019050610fe56000830184610fc1565b92915050565b600080fd5b600073ffffffffffffffffffffffffffffffffffffffff82169050919050565b600061101b82610ff0565b9050919050565b61102b81611010565b811461103657600080fd5b50565b60008135905061104881611022565b92915050565b60006020828403121561106457611063610feb565b5b600061107284828501611039565b91505092915050565b600061108682610ff0565b9050919050565b6110968161107b565b82525050565b60006020820190506110b1600083018461108d565b92915050565b6110c081610fb7565b81146110cb57600080fd5b50565b6000813590506110dd816110b7565b92915050565b6000602082840312156110f9576110f8610feb565b5b6000611107848285016110ce565b91505092915050565b61111981611010565b82525050565b60006040820190506111346000830185611110565b6111416020830184610fc1565b9392505050565b600060208201905061115d6000830184611110565b92915050565b600081519050919050565b600082825260208201905092915050565b6000819050602082019050919050565b61119881611010565b82525050565b6111a781610fb7565b82525050565b6040820160008201516111c3600085018261118f565b5060208201516111d6602085018261119e565b50505050565b60006111e883836111ad565b60408301905092915050565b6000602082019050919050565b600061120c82611163565b611216818561116e565b93506112218361117f565b8060005b8381101561125257815161123988826111dc565b9750611244836111f4565b925050600181019050611225565b5085935050505092915050565b600060208201905081810360008301526112798184611201565b905092915050565b60008115159050919050565b61129681611281565b82525050565b60006020820190506112b1600083018461128d565b92915050565b600082825260208201905092915050565b7f536f6c6f20656c2070726f706965746172696f20707565646520656a6563757460008201527f6172206573746f00000000000000000000000000000000000000000000000000602082015250565b60006113246027836112b7565b915061132f826112c8565b604082019050919050565b6000602082019050818103600083015261135381611317565b9050919050565b7f4c61207375626173746120736967756520616374697661000000000000000000600082015250565b60006113906017836112b7565b915061139b8261135a565b602082019050919050565b600060208201905081810360008301526113bf81611383565b9050919050565b7f537562617374612079612066696e616c697a6164610000000000000000000000600082015250565b60006113fc6015836112b7565b9150611407826113c6565b602082019050919050565b6000602082019050818103600083015261142b816113ef565b9050919050565b7f4e487b7100000000000000000000000000000000000000000000000000000000600052601160045260246000fd5b600061146c82610fb7565b915061147783610fb7565b925082820261148581610fb7565b9150828204841483151761149c5761149b611432565b5b5092915050565b7f4e487b7100000000000000000000000000000000000000000000000000000000600052601260045260246000fd5b60006114dd82610fb7565b91506114e883610fb7565b9250826114f8576114f76114a3565b5b828204905092915050565b600061150e82610fb7565b915061151983610fb7565b925082820390508181111561153157611530611432565b5b92915050565b600081905092915050565b50565b6000611552600083611537565b915061155d82611542565b600082019050919050565b600061157382611545565b9150819050919050565b7f4572726f7220616c207472616e73666572697220616c2070726f70696574617260008201527f696f000000000000000000000000000000000000000000000000000000000000602082015250565b60006115d96022836112b7565b91506115e48261157d565b604082019050919050565b60006020820190508181036000830152611608816115cc565b9050919050565b7f4e487b7100000000000000000000000000000000000000000000000000000000600052603260045260246000fd5b7f4572726f7220616c206465766f6c766572207265656d626f6c736f0000000000600082015250565b6000611674601b836112b7565b915061167f8261163e565b602082019050919050565b600060208201905081810360008301526116a381611667565b9050919050565b60006116b582610fb7565b91507fffffffffffffffffffffffffffffffffffffffffffffffffffffffffffffffff82036116e7576116e6611432565b5b600182019050919050565b7f4c6120737562617374612066696e616c697a6f00000000000000000000000000600082015250565b60006117286013836112b7565b9150611733826116f2565b602082019050919050565b600060208201905081810360008301526117578161171b565b9050919050565b7f4c612073756261737461207961206675652066696e616c697a61646100000000600082015250565b6000611794601c836112b7565b915061179f8261175e565b602082019050919050565b600060208201905081810360008301526117c381611787565b9050919050565b7f446562657320656e766961722045544800000000000000000000000000000000600082015250565b60006118006010836112b7565b915061180b826117ca565b602082019050919050565b6000602082019050818103600083015261182f816117f3565b9050919050565b600061184182610fb7565b915061184c83610fb7565b925082820190508082111561186457611863611432565b5b92915050565b7f4f666572746120646562652073657220616c206d656e6f73203525206d61796f60008201527f7220717565206c612061637475616c0000000000000000000000000000000000602082015250565b60006118c6602f836112b7565b91506118d18261186a565b604082019050919050565b600060208201905081810360008301526118f5816118b9565b9050919050565b7f4e6f20686179207265656d626f6c736f20646973706f6e69626c650000000000600082015250565b6000611932601b836112b7565b915061193d826118fc565b602082019050919050565b6000602082019050818103600083015261196181611925565b9050919050565b7f4572726f7220616c207472616e736665726972207265656d626f6c736f000000600082015250565b600061199e601d836112b7565b91506119a982611968565b602082019050919050565b600060208201905081810360008301526119cd81611991565b905091905056fea26469706673582212204f7b2e507a72471cec2685473007faf9bcf6c78a025da892b84632b88e80937064736f6c63430008130033",
			"opcodes": "PUSH1 0x80 PUSH1 0x40 MSTORE PUSH1 0x2 PUSH1 0x4 SSTORE CALLVALUE DUP1 ISZERO PUSH3 0x16 JUMPI PUSH1 0x0 DUP1 REVERT JUMPDEST POP PUSH1 0x40 MLOAD PUSH3 0x1CAF CODESIZE SUB DUP1 PUSH3 0x1CAF DUP4 CODECOPY DUP2 DUP2 ADD PUSH1 0x40 MSTORE DUP2 ADD SWAP1 PUSH3 0x3C SWAP2 SWAP1 PUSH3 0x12B JUMP JUMPDEST PUSH1 0x0 DUP2 GT PUSH3 0x82 JUMPI PUSH1 0x40 MLOAD PUSH32 0x8C379A000000000000000000000000000000000000000000000000000000000 DUP2 MSTORE PUSH1 0x4 ADD PUSH3 0x79 SWAP1 PUSH3 0x1BE JUMP JUMPDEST PUSH1 0x40 MLOAD DUP1 SWAP2 SUB SWAP1 REVERT JUMPDEST CALLER PUSH1 0x0 DUP1 PUSH2 0x100 EXP DUP2 SLOAD DUP2 PUSH20 0xFFFFFFFFFFFFFFFFFFFFFFFFFFFFFFFFFFFFFFFF MUL NOT AND SWAP1 DUP4 PUSH20 0xFFFFFFFFFFFFFFFFFFFFFFFFFFFFFFFFFFFFFFFF AND MUL OR SWAP1 SSTORE POP PUSH1 0x3C DUP2 PUSH3 0xD1 SWAP2 SWAP1 PUSH3 0x20F JUMP JUMPDEST TIMESTAMP PUSH3 0xDE SWAP2 SWAP1 PUSH3 0x25A JUMP JUMPDEST PUSH1 0x1 DUP2 SWAP1 SSTORE POP POP PUSH3 0x295 JUMP JUMPDEST PUSH1 0x0 DUP1 REVERT JUMPDEST PUSH1 0x0 DUP2 SWAP1 POP SWAP2 SWAP1 POP JUMP JUMPDEST PUSH3 0x105 DUP2 PUSH3 0xF0 JUMP JUMPDEST DUP2 EQ PUSH3 0x111 JUMPI PUSH1 0x0 DUP1 REVERT JUMPDEST POP JUMP JUMPDEST PUSH1 0x0 DUP2 MLOAD SWAP1 POP PUSH3 0x125 DUP2 PUSH3 0xFA JUMP JUMPDEST SWAP3 SWAP2 POP POP JUMP JUMPDEST PUSH1 0x0 PUSH1 0x20 DUP3 DUP5 SUB SLT ISZERO PUSH3 0x144 JUMPI PUSH3 0x143 PUSH3 0xEB JUMP JUMPDEST JUMPDEST PUSH1 0x0 PUSH3 0x154 DUP5 DUP3 DUP6 ADD PUSH3 0x114 JUMP JUMPDEST SWAP2 POP POP SWAP3 SWAP2 POP POP JUMP JUMPDEST PUSH1 0x0 DUP3 DUP3 MSTORE PUSH1 0x20 DUP3 ADD SWAP1 POP SWAP3 SWAP2 POP POP JUMP JUMPDEST PUSH32 0x4475726163696F6E20646562652073657220706F736974697661000000000000 PUSH1 0x0 DUP3 ADD MSTORE POP JUMP JUMPDEST PUSH1 0x0 PUSH3 0x1A6 PUSH1 0x1A DUP4 PUSH3 0x15D JUMP JUMPDEST SWAP2 POP PUSH3 0x1B3 DUP3 PUSH3 0x16E JUMP JUMPDEST PUSH1 0x20 DUP3 ADD SWAP1 POP SWAP2 SWAP1 POP JUMP JUMPDEST PUSH1 0x0 PUSH1 0x20 DUP3 ADD SWAP1 POP DUP2 DUP2 SUB PUSH1 0x0 DUP4 ADD MSTORE PUSH3 0x1D9 DUP2 PUSH3 0x197 JUMP JUMPDEST SWAP1 POP SWAP2 SWAP1 POP JUMP JUMPDEST PUSH32 0x4E487B7100000000000000000000000000000000000000000000000000000000 PUSH1 0x0 MSTORE PUSH1 0x11 PUSH1 0x4 MSTORE PUSH1 0x24 PUSH1 0x0 REVERT JUMPDEST PUSH1 0x0 PUSH3 0x21C DUP3 PUSH3 0xF0 JUMP JUMPDEST SWAP2 POP PUSH3 0x229 DUP4 PUSH3 0xF0 JUMP JUMPDEST SWAP3 POP DUP3 DUP3 MUL PUSH3 0x239 DUP2 PUSH3 0xF0 JUMP JUMPDEST SWAP2 POP DUP3 DUP3 DIV DUP5 EQ DUP4 ISZERO OR PUSH3 0x253 JUMPI PUSH3 0x252 PUSH3 0x1E0 JUMP JUMPDEST JUMPDEST POP SWAP3 SWAP2 POP POP JUMP JUMPDEST PUSH1 0x0 PUSH3 0x267 DUP3 PUSH3 0xF0 JUMP JUMPDEST SWAP2 POP PUSH3 0x274 DUP4 PUSH3 0xF0 JUMP JUMPDEST SWAP3 POP DUP3 DUP3 ADD SWAP1 POP DUP1 DUP3 GT ISZERO PUSH3 0x28F JUMPI PUSH3 0x28E PUSH3 0x1E0 JUMP JUMPDEST JUMPDEST SWAP3 SWAP2 POP POP JUMP JUMPDEST PUSH2 0x1A0A DUP1 PUSH3 0x2A5 PUSH1 0x0 CODECOPY PUSH1 0x0 RETURN INVALID PUSH1 0x80 PUSH1 0x40 MSTORE PUSH1 0x4 CALLDATASIZE LT PUSH2 0xDD JUMPI PUSH1 0x0 CALLDATALOAD PUSH1 0xE0 SHR DUP1 PUSH4 0x56AFFF7C GT PUSH2 0x7F JUMPI DUP1 PUSH4 0x9114BDE8 GT PUSH2 0x59 JUMPI DUP1 PUSH4 0x9114BDE8 EQ PUSH2 0x293 JUMPI DUP1 PUSH4 0xACDD4DBA EQ PUSH2 0x2BE JUMPI DUP1 PUSH4 0xC442A99F EQ PUSH2 0x2D5 JUMPI DUP1 PUSH4 0xFFBFC189 EQ PUSH2 0x300 JUMPI PUSH2 0xDD JUMP JUMPDEST DUP1 PUSH4 0x56AFFF7C EQ PUSH2 0x1EC JUMPI DUP1 PUSH4 0x753DCAEB EQ PUSH2 0x22A JUMPI DUP1 PUSH4 0x7FBD9B69 EQ PUSH2 0x256 JUMPI PUSH2 0xDD JUMP JUMPDEST DUP1 PUSH4 0x1C33274F GT PUSH2 0xBB JUMPI DUP1 PUSH4 0x1C33274F EQ PUSH2 0x14F JUMPI DUP1 PUSH4 0x3C4F81CD EQ PUSH2 0x18C JUMPI DUP1 PUSH4 0x3EC059D7 EQ PUSH2 0x1B7 JUMPI DUP1 PUSH4 0x4FA0F827 EQ PUSH2 0x1C1 JUMPI PUSH2 0xDD JUMP JUMPDEST DUP1 PUSH4 0x851EAC2 EQ PUSH2 0xE2 JUMPI DUP1 PUSH4 0xDFE4C35 EQ PUSH2 0xF9 JUMPI DUP1 PUSH4 0x13A83EAF EQ PUSH2 0x124 JUMPI JUMPDEST PUSH1 0x0 DUP1 REVERT JUMPDEST CALLVALUE DUP1 ISZERO PUSH2 0xEE JUMPI PUSH1 0x0 DUP1 REVERT JUMPDEST POP PUSH2 0xF7 PUSH2 0x32B JUMP JUMPDEST STOP JUMPDEST CALLVALUE DUP1 ISZERO PUSH2 0x105 JUMPI PUSH1 0x0 DUP1 REVERT JUMPDEST POP PUSH2 0x10E PUSH2 0x815 JUMP JUMPDEST PUSH1 0x40 MLOAD PUSH2 0x11B SWAP2 SWAP1 PUSH2 0xFD0 JUMP JUMPDEST PUSH1 0x40 MLOAD DUP1 SWAP2 SUB SWAP1 RETURN JUMPDEST CALLVALUE DUP1 ISZERO PUSH2 0x130 JUMPI PUSH1 0x0 DUP1 REVERT JUMPDEST POP PUSH2 0x139 PUSH2 0x81B JUMP JUMPDEST PUSH1 0x40 MLOAD PUSH2 0x146 SWAP2 SWAP1 PUSH2 0xFD0 JUMP JUMPDEST PUSH1 0x40 MLOAD DUP1 SWAP2 SUB SWAP1 RETURN JUMPDEST CALLVALUE DUP1 ISZERO PUSH2 0x15B JUMPI PUSH1 0x0 DUP1 REVERT JUMPDEST POP PUSH2 0x176 PUSH1 0x4 DUP1 CALLDATASIZE SUB DUP2 ADD SWAP1 PUSH2 0x171 SWAP2 SWAP1 PUSH2 0x104E JUMP JUMPDEST PUSH2 0x821 JUMP JUMPDEST PUSH1 0x40 MLOAD PUSH2 0x183 SWAP2 SWAP1 PUSH2 0xFD0 JUMP JUMPDEST PUSH1 0x40 MLOAD DUP1 SWAP2 SUB SWAP1 RETURN JUMPDEST CALLVALUE DUP1 ISZERO PUSH2 0x198 JUMPI PUSH1 0x0 DUP1 REVERT JUMPDEST POP PUSH2 0x1A1 PUSH2 0x839 JUMP JUMPDEST PUSH1 0x40 MLOAD PUSH2 0x1AE SWAP2 SWAP1 PUSH2 0x109C JUMP JUMPDEST PUSH1 0x40 MLOAD DUP1 SWAP2 SUB SWAP1 RETURN JUMPDEST PUSH2 0x1BF PUSH2 0x85D JUMP JUMPDEST STOP JUMPDEST CALLVALUE DUP1 ISZERO PUSH2 0x1CD JUMPI PUSH1 0x0 DUP1 REVERT JUMPDEST POP PUSH2 0x1D6 PUSH2 0xBB1 JUMP JUMPDEST PUSH1 0x40 MLOAD PUSH2 0x1E3 SWAP2 SWAP1 PUSH2 0xFD0 JUMP JUMPDEST PUSH1 0x40 MLOAD DUP1 SWAP2 SUB SWAP1 RETURN JUMPDEST CALLVALUE DUP1 ISZERO PUSH2 0x1F8 JUMPI PUSH1 0x0 DUP1 REVERT JUMPDEST POP PUSH2 0x213 PUSH1 0x4 DUP1 CALLDATASIZE SUB DUP2 ADD SWAP1 PUSH2 0x20E SWAP2 SWAP1 PUSH2 0x10E3 JUMP JUMPDEST PUSH2 0xBB7 JUMP JUMPDEST PUSH1 0x40 MLOAD PUSH2 0x221 SWAP3 SWAP2 SWAP1 PUSH2 0x111F JUMP JUMPDEST PUSH1 0x40 MLOAD DUP1 SWAP2 SUB SWAP1 RETURN JUMPDEST CALLVALUE DUP1 ISZERO PUSH2 0x236 JUMPI PUSH1 0x0 DUP1 REVERT JUMPDEST POP PUSH2 0x23F PUSH2 0xC0B JUMP JUMPDEST PUSH1 0x40 MLOAD PUSH2 0x24D SWAP3 SWAP2 SWAP1 PUSH2 0x111F JUMP JUMPDEST PUSH1 0x40 MLOAD DUP1 SWAP2 SUB SWAP1 RETURN JUMPDEST CALLVALUE DUP1 ISZERO PUSH2 0x262 JUMPI PUSH1 0x0 DUP1 REVERT JUMPDEST POP PUSH2 0x27D PUSH1 0x4 DUP1 CALLDATASIZE SUB DUP2 ADD SWAP1 PUSH2 0x278 SWAP2 SWAP1 PUSH2 0x104E JUMP JUMPDEST PUSH2 0xC3C JUMP JUMPDEST PUSH1 0x40 MLOAD PUSH2 0x28A SWAP2 SWAP1 PUSH2 0xFD0 JUMP JUMPDEST PUSH1 0x40 MLOAD DUP1 SWAP2 SUB SWAP1 RETURN JUMPDEST CALLVALUE DUP1 ISZERO PUSH2 0x29F JUMPI PUSH1 0x0 DUP1 REVERT JUMPDEST POP PUSH2 0x2A8 PUSH2 0xC54 JUMP JUMPDEST PUSH1 0x40 MLOAD PUSH2 0x2B5 SWAP2 SWAP1 PUSH2 0x1148 JUMP JUMPDEST PUSH1 0x40 MLOAD DUP1 SWAP2 SUB SWAP1 RETURN JUMPDEST CALLVALUE DUP1 ISZERO PUSH2 0x2CA JUMPI PUSH1 0x0 DUP1 REVERT JUMPDEST POP PUSH2 0x2D3 PUSH2 0xC7A JUMP JUMPDEST STOP JUMPDEST CALLVALUE DUP1 ISZERO PUSH2 0x2E1 JUMPI PUSH1 0x0 DUP1 REVERT JUMPDEST POP PUSH2 0x2EA PUSH2 0xEE5 JUMP JUMPDEST PUSH1 0x40 MLOAD PUSH2 0x2F7 SWAP2 SWAP1 PUSH2 0x125F JUMP JUMPDEST PUSH1 0x40 MLOAD DUP1 SWAP2 SUB SWAP1 RETURN JUMPDEST CALLVALUE DUP1 ISZERO PUSH2 0x30C JUMPI PUSH1 0x0 DUP1 REVERT JUMPDEST POP PUSH2 0x315 PUSH2 0xFA4 JUMP JUMPDEST PUSH1 0x40 MLOAD PUSH2 0x322 SWAP2 SWAP1 PUSH2 0x129C JUMP JUMPDEST PUSH1 0x40 MLOAD DUP1 SWAP2 SUB SWAP1 RETURN JUMPDEST PUSH1 0x0 DUP1 SLOAD SWAP1 PUSH2 0x100 EXP SWAP1 DIV PUSH20 0xFFFFFFFFFFFFFFFFFFFFFFFFFFFFFFFFFFFFFFFF AND PUSH20 0xFFFFFFFFFFFFFFFFFFFFFFFFFFFFFFFFFFFFFFFF AND CALLER PUSH20 0xFFFFFFFFFFFFFFFFFFFFFFFFFFFFFFFFFFFFFFFF AND EQ PUSH2 0x3B9 JUMPI PUSH1 0x40 MLOAD PUSH32 0x8C379A000000000000000000000000000000000000000000000000000000000 DUP2 MSTORE PUSH1 0x4 ADD PUSH2 0x3B0 SWAP1 PUSH2 0x133A JUMP JUMPDEST PUSH1 0x40 MLOAD DUP1 SWAP2 SUB SWAP1 REVERT JUMPDEST PUSH1 0x1 SLOAD TIMESTAMP LT ISZERO PUSH2 0x3FE JUMPI PUSH1 0x40 MLOAD PUSH32 0x8C379A000000000000000000000000000000000000000000000000000000000 DUP2 MSTORE PUSH1 0x4 ADD PUSH2 0x3F5 SWAP1 PUSH2 0x13A6 JUMP JUMPDEST PUSH1 0x40 MLOAD DUP1 SWAP2 SUB SWAP1 REVERT JUMPDEST PUSH1 0x8 PUSH1 0x0 SWAP1 SLOAD SWAP1 PUSH2 0x100 EXP SWAP1 DIV PUSH1 0xFF AND ISZERO PUSH2 0x44E JUMPI PUSH1 0x40 MLOAD PUSH32 0x8C379A000000000000000000000000000000000000000000000000000000000 DUP2 MSTORE PUSH1 0x4 ADD PUSH2 0x445 SWAP1 PUSH2 0x1412 JUMP JUMPDEST PUSH1 0x40 MLOAD DUP1 SWAP2 SUB SWAP1 REVERT JUMPDEST PUSH1 0x1 PUSH1 0x8 PUSH1 0x0 PUSH2 0x100 EXP DUP2 SLOAD DUP2 PUSH1 0xFF MUL NOT AND SWAP1 DUP4 ISZERO ISZERO MUL OR SWAP1 SSTORE POP PUSH1 0x0 PUSH1 0x2 SLOAD SWAP1 POP PUSH1 0x0 PUSH1 0x64 PUSH1 0x4 SLOAD DUP4 PUSH2 0x482 SWAP2 SWAP1 PUSH2 0x1461 JUMP JUMPDEST PUSH2 0x48C SWAP2 SWAP1 PUSH2 0x14D2 JUMP JUMPDEST SWAP1 POP PUSH1 0x0 DUP2 DUP4 PUSH2 0x49C SWAP2 SWAP1 PUSH2 0x1503 JUMP JUMPDEST SWAP1 POP PUSH1 0x0 DUP1 PUSH1 0x0 SWAP1 SLOAD SWAP1 PUSH2 0x100 EXP SWAP1 DIV PUSH20 0xFFFFFFFFFFFFFFFFFFFFFFFFFFFFFFFFFFFFFFFF AND PUSH20 0xFFFFFFFFFFFFFFFFFFFFFFFFFFFFFFFFFFFFFFFF AND DUP3 PUSH1 0x40 MLOAD PUSH2 0x4E5 SWAP1 PUSH2 0x1568 JUMP JUMPDEST PUSH1 0x0 PUSH1 0x40 MLOAD DUP1 DUP4 SUB DUP2 DUP6 DUP8 GAS CALL SWAP3 POP POP POP RETURNDATASIZE DUP1 PUSH1 0x0 DUP2 EQ PUSH2 0x522 JUMPI PUSH1 0x40 MLOAD SWAP2 POP PUSH1 0x1F NOT PUSH1 0x3F RETURNDATASIZE ADD AND DUP3 ADD PUSH1 0x40 MSTORE RETURNDATASIZE DUP3 MSTORE RETURNDATASIZE PUSH1 0x0 PUSH1 0x20 DUP5 ADD RETURNDATACOPY PUSH2 0x527 JUMP JUMPDEST PUSH1 0x60 SWAP2 POP JUMPDEST POP POP SWAP1 POP DUP1 PUSH2 0x56B JUMPI PUSH1 0x40 MLOAD PUSH32 0x8C379A000000000000000000000000000000000000000000000000000000000 DUP2 MSTORE PUSH1 0x4 ADD PUSH2 0x562 SWAP1 PUSH2 0x15EF JUMP JUMPDEST PUSH1 0x40 MLOAD DUP1 SWAP2 SUB SWAP1 REVERT JUMPDEST PUSH1 0x0 JUMPDEST PUSH1 0x5 DUP1 SLOAD SWAP1 POP DUP2 LT ISZERO PUSH2 0x7B3 JUMPI PUSH1 0x0 PUSH1 0x5 DUP3 DUP2 SLOAD DUP2 LT PUSH2 0x591 JUMPI PUSH2 0x590 PUSH2 0x160F JUMP JUMPDEST JUMPDEST SWAP1 PUSH1 0x0 MSTORE PUSH1 0x20 PUSH1 0x0 KECCAK256 SWAP1 PUSH1 0x2 MUL ADD PUSH1 0x0 ADD PUSH1 0x0 SWAP1 SLOAD SWAP1 PUSH2 0x100 EXP SWAP1 DIV PUSH20 0xFFFFFFFFFFFFFFFFFFFFFFFFFFFFFFFFFFFFFFFF AND SWAP1 POP PUSH1 0x3 PUSH1 0x0 SWAP1 SLOAD SWAP1 PUSH2 0x100 EXP SWAP1 DIV PUSH20 0xFFFFFFFFFFFFFFFFFFFFFFFFFFFFFFFFFFFFFFFF AND PUSH20 0xFFFFFFFFFFFFFFFFFFFFFFFFFFFFFFFFFFFFFFFF AND DUP2 PUSH20 0xFFFFFFFFFFFFFFFFFFFFFFFFFFFFFFFFFFFFFFFF AND EQ ISZERO DUP1 ISZERO PUSH2 0x662 JUMPI POP PUSH1 0x0 PUSH1 0x6 PUSH1 0x0 DUP4 PUSH20 0xFFFFFFFFFFFFFFFFFFFFFFFFFFFFFFFFFFFFFFFF AND PUSH20 0xFFFFFFFFFFFFFFFFFFFFFFFFFFFFFFFFFFFFFFFF AND DUP2 MSTORE PUSH1 0x20 ADD SWAP1 DUP2 MSTORE PUSH1 0x20 ADD PUSH1 0x0 KECCAK256 SLOAD GT JUMPDEST ISZERO PUSH2 0x79F JUMPI PUSH1 0x0 PUSH1 0x6 PUSH1 0x0 DUP4 PUSH20 0xFFFFFFFFFFFFFFFFFFFFFFFFFFFFFFFFFFFFFFFF AND PUSH20 0xFFFFFFFFFFFFFFFFFFFFFFFFFFFFFFFFFFFFFFFF AND DUP2 MSTORE PUSH1 0x20 ADD SWAP1 DUP2 MSTORE PUSH1 0x20 ADD PUSH1 0x0 KECCAK256 SLOAD SWAP1 POP PUSH1 0x0 PUSH1 0x6 PUSH1 0x0 DUP5 PUSH20 0xFFFFFFFFFFFFFFFFFFFFFFFFFFFFFFFFFFFFFFFF AND PUSH20 0xFFFFFFFFFFFFFFFFFFFFFFFFFFFFFFFFFFFFFFFF AND DUP2 MSTORE PUSH1 0x20 ADD SWAP1 DUP2 MSTORE PUSH1 0x20 ADD PUSH1 0x0 KECCAK256 DUP2 SWAP1 SSTORE POP PUSH1 0x0 DUP3 PUSH20 0xFFFFFFFFFFFFFFFFFFFFFFFFFFFFFFFFFFFFFFFF AND DUP3 PUSH1 0x40 MLOAD PUSH2 0x716 SWAP1 PUSH2 0x1568 JUMP JUMPDEST PUSH1 0x0 PUSH1 0x40 MLOAD DUP1 DUP4 SUB DUP2 DUP6 DUP8 GAS CALL SWAP3 POP POP POP RETURNDATASIZE DUP1 PUSH1 0x0 DUP2 EQ PUSH2 0x753 JUMPI PUSH1 0x40 MLOAD SWAP2 POP PUSH1 0x1F NOT PUSH1 0x3F RETURNDATASIZE ADD AND DUP3 ADD PUSH1 0x40 MSTORE RETURNDATASIZE DUP3 MSTORE RETURNDATASIZE PUSH1 0x0 PUSH1 0x20 DUP5 ADD RETURNDATACOPY PUSH2 0x758 JUMP JUMPDEST PUSH1 0x60 SWAP2 POP JUMPDEST POP POP SWAP1 POP DUP1 PUSH2 0x79C JUMPI PUSH1 0x40 MLOAD PUSH32 0x8C379A000000000000000000000000000000000000000000000000000000000 DUP2 MSTORE PUSH1 0x4 ADD PUSH2 0x793 SWAP1 PUSH2 0x168A JUMP JUMPDEST PUSH1 0x40 MLOAD DUP1 SWAP2 SUB SWAP1 REVERT JUMPDEST POP POP JUMPDEST POP DUP1 DUP1 PUSH2 0x7AB SWAP1 PUSH2 0x16AA JUMP JUMPDEST SWAP2 POP POP PUSH2 0x56E JUMP JUMPDEST POP PUSH32 0xA3A65B403BDAE88EB037F4ECC1D619F436FC3EF6BCBBEE3787757164E82883F2 PUSH1 0x3 PUSH1 0x0 SWAP1 SLOAD SWAP1 PUSH2 0x100 EXP SWAP1 DIV PUSH20 0xFFFFFFFFFFFFFFFFFFFFFFFFFFFFFFFFFFFFFFFF AND DUP6 PUSH1 0x40 MLOAD PUSH2 0x807 SWAP3 SWAP2 SWAP1 PUSH2 0x111F JUMP JUMPDEST PUSH1 0x40 MLOAD DUP1 SWAP2 SUB SWAP1 LOG1 POP POP POP POP JUMP JUMPDEST PUSH1 0x1 SLOAD DUP2 JUMP JUMPDEST PUSH1 0x2 SLOAD DUP2 JUMP JUMPDEST PUSH1 0x7 PUSH1 0x20 MSTORE DUP1 PUSH1 0x0 MSTORE PUSH1 0x40 PUSH1 0x0 KECCAK256 PUSH1 0x0 SWAP2 POP SWAP1 POP SLOAD DUP2 JUMP JUMPDEST PUSH1 0x0 DUP1 SLOAD SWAP1 PUSH2 0x100 EXP SWAP1 DIV PUSH20 0xFFFFFFFFFFFFFFFFFFFFFFFFFFFFFFFFFFFFFFFF AND DUP2 JUMP JUMPDEST PUSH1 0x1 SLOAD TIMESTAMP LT PUSH2 0x8A1 JUMPI PUSH1 0x40 MLOAD PUSH32 0x8C379A000000000000000000000000000000000000000000000000000000000 DUP2 MSTORE PUSH1 0x4 ADD PUSH2 0x898 SWAP1 PUSH2 0x173E JUMP JUMPDEST PUSH1 0x40 MLOAD DUP1 SWAP2 SUB SWAP1 REVERT JUMPDEST PUSH1 0x8 PUSH1 0x0 SWAP1 SLOAD SWAP1 PUSH2 0x100 EXP SWAP1 DIV PUSH1 0xFF AND ISZERO PUSH2 0x8F1 JUMPI PUSH1 0x40 MLOAD PUSH32 0x8C379A000000000000000000000000000000000000000000000000000000000 DUP2 MSTORE PUSH1 0x4 ADD PUSH2 0x8E8 SWAP1 PUSH2 0x17AA JUMP JUMPDEST PUSH1 0x40 MLOAD DUP1 SWAP2 SUB SWAP1 REVERT JUMPDEST PUSH1 0x0 CALLVALUE GT PUSH2 0x934 JUMPI PUSH1 0x40 MLOAD PUSH32 0x8C379A000000000000000000000000000000000000000000000000000000000 DUP2 MSTORE PUSH1 0x4 ADD PUSH2 0x92B SWAP1 PUSH2 0x1816 JUMP JUMPDEST PUSH1 0x40 MLOAD DUP1 SWAP2 SUB SWAP1 REVERT JUMPDEST PUSH1 0x0 PUSH1 0x64 PUSH1 0x5 PUSH1 0x2 SLOAD PUSH2 0x947 SWAP2 SWAP1 PUSH2 0x1461 JUMP JUMPDEST PUSH2 0x951 SWAP2 SWAP1 PUSH2 0x14D2 JUMP JUMPDEST PUSH1 0x2 SLOAD PUSH2 0x95E SWAP2 SWAP1 PUSH2 0x1836 JUMP JUMPDEST SWAP1 POP DUP1 CALLVALUE GT PUSH2 0x9A2 JUMPI PUSH1 0x40 MLOAD PUSH32 0x8C379A000000000000000000000000000000000000000000000000000000000 DUP2 MSTORE PUSH1 0x4 ADD PUSH2 0x999 SWAP1 PUSH2 0x18DC JUMP JUMPDEST PUSH1 0x40 MLOAD DUP1 SWAP2 SUB SWAP1 REVERT JUMPDEST CALLVALUE PUSH1 0x6 PUSH1 0x0 CALLER PUSH20 0xFFFFFFFFFFFFFFFFFFFFFFFFFFFFFFFFFFFFFFFF AND PUSH20 0xFFFFFFFFFFFFFFFFFFFFFFFFFFFFFFFFFFFFFFFF AND DUP2 MSTORE PUSH1 0x20 ADD SWAP1 DUP2 MSTORE PUSH1 0x20 ADD PUSH1 0x0 KECCAK256 PUSH1 0x0 DUP3 DUP3 SLOAD PUSH2 0x9F1 SWAP2 SWAP1 PUSH2 0x1836 JUMP JUMPDEST SWAP3 POP POP DUP2 SWAP1 SSTORE POP CALLVALUE PUSH1 0x7 PUSH1 0x0 CALLER PUSH20 0xFFFFFFFFFFFFFFFFFFFFFFFFFFFFFFFFFFFFFFFF AND PUSH20 0xFFFFFFFFFFFFFFFFFFFFFFFFFFFFFFFFFFFFFFFF AND DUP2 MSTORE PUSH1 0x20 ADD SWAP1 DUP2 MSTORE PUSH1 0x20 ADD PUSH1 0x0 KECCAK256 DUP2 SWAP1 SSTORE POP PUSH1 0x5 PUSH1 0x40 MLOAD DUP1 PUSH1 0x40 ADD PUSH1 0x40 MSTORE DUP1 CALLER PUSH20 0xFFFFFFFFFFFFFFFFFFFFFFFFFFFFFFFFFFFFFFFF AND DUP2 MSTORE PUSH1 0x20 ADD CALLVALUE DUP2 MSTORE POP SWAP1 DUP1 PUSH1 0x1 DUP2 SLOAD ADD DUP1 DUP3 SSTORE DUP1 SWAP2 POP POP PUSH1 0x1 SWAP1 SUB SWAP1 PUSH1 0x0 MSTORE PUSH1 0x20 PUSH1 0x0 KECCAK256 SWAP1 PUSH1 0x2 MUL ADD PUSH1 0x0 SWAP1 SWAP2 SWAP1 SWAP2 SWAP1 SWAP2 POP PUSH1 0x0 DUP3 ADD MLOAD DUP2 PUSH1 0x0 ADD PUSH1 0x0 PUSH2 0x100 EXP DUP2 SLOAD DUP2 PUSH20 0xFFFFFFFFFFFFFFFFFFFFFFFFFFFFFFFFFFFFFFFF MUL NOT AND SWAP1 DUP4 PUSH20 0xFFFFFFFFFFFFFFFFFFFFFFFFFFFFFFFFFFFFFFFF AND MUL OR SWAP1 SSTORE POP PUSH1 0x20 DUP3 ADD MLOAD DUP2 PUSH1 0x1 ADD SSTORE POP POP CALLVALUE PUSH1 0x2 DUP2 SWAP1 SSTORE POP CALLER PUSH1 0x3 PUSH1 0x0 PUSH2 0x100 EXP DUP2 SLOAD DUP2 PUSH20 0xFFFFFFFFFFFFFFFFFFFFFFFFFFFFFFFFFFFFFFFF MUL NOT AND SWAP1 DUP4 PUSH20 0xFFFFFFFFFFFFFFFFFFFFFFFFFFFFFFFFFFFFFFFF AND MUL OR SWAP1 SSTORE POP PUSH2 0x258 TIMESTAMP PUSH1 0x1 SLOAD PUSH2 0xB3E SWAP2 SWAP1 PUSH2 0x1503 JUMP JUMPDEST LT ISZERO PUSH2 0xB60 JUMPI PUSH2 0x258 PUSH1 0x1 PUSH1 0x0 DUP3 DUP3 SLOAD PUSH2 0xB58 SWAP2 SWAP1 PUSH2 0x1836 JUMP JUMPDEST SWAP3 POP POP DUP2 SWAP1 SSTORE POP JUMPDEST CALLER PUSH20 0xFFFFFFFFFFFFFFFFFFFFFFFFFFFFFFFFFFFFFFFF AND PUSH32 0x155D469211F46E4D9AE974606F0878F9AACC6198BA30A1E6B9C8CF5627352FB5 CALLVALUE PUSH1 0x40 MLOAD PUSH2 0xBA6 SWAP2 SWAP1 PUSH2 0xFD0 JUMP JUMPDEST PUSH1 0x40 MLOAD DUP1 SWAP2 SUB SWAP1 LOG2 POP JUMP JUMPDEST PUSH1 0x4 SLOAD DUP2 JUMP JUMPDEST PUSH1 0x5 DUP2 DUP2 SLOAD DUP2 LT PUSH2 0xBC7 JUMPI PUSH1 0x0 DUP1 REVERT JUMPDEST SWAP1 PUSH1 0x0 MSTORE PUSH1 0x20 PUSH1 0x0 KECCAK256 SWAP1 PUSH1 0x2 MUL ADD PUSH1 0x0 SWAP2 POP SWAP1 POP DUP1 PUSH1 0x0 ADD PUSH1 0x0 SWAP1 SLOAD SWAP1 PUSH2 0x100 EXP SWAP1 DIV PUSH20 0xFFFFFFFFFFFFFFFFFFFFFFFFFFFFFFFFFFFFFFFF AND SWAP1 DUP1 PUSH1 0x1 ADD SLOAD SWAP1 POP DUP3 JUMP JUMPDEST PUSH1 0x0 DUP1 PUSH1 0x3 PUSH1 0x0 SWAP1 SLOAD SWAP1 PUSH2 0x100 EXP SWAP1 DIV PUSH20 0xFFFFFFFFFFFFFFFFFFFFFFFFFFFFFFFFFFFFFFFF AND PUSH1 0x2 SLOAD SWAP2 POP SWAP2 POP SWAP1 SWAP2 JUMP JUMPDEST PUSH1 0x6 PUSH1 0x20 MSTORE DUP1 PUSH1 0x0 MSTORE PUSH1 0x40 PUSH1 0x0 KECCAK256 PUSH1 0x0 SWAP2 POP SWAP1 POP SLOAD DUP2 JUMP JUMPDEST PUSH1 0x3 PUSH1 0x0 SWAP1 SLOAD SWAP1 PUSH2 0x100 EXP SWAP1 DIV PUSH20 0xFFFFFFFFFFFFFFFFFFFFFFFFFFFFFFFFFFFFFFFF AND DUP2 JUMP JUMPDEST PUSH1 0x1 SLOAD TIMESTAMP LT PUSH2 0xCBE JUMPI PUSH1 0x40 MLOAD PUSH32 0x8C379A000000000000000000000000000000000000000000000000000000000 DUP2 MSTORE PUSH1 0x4 ADD PUSH2 0xCB5 SWAP1 PUSH2 0x173E JUMP JUMPDEST PUSH1 0x40 MLOAD DUP1 SWAP2 SUB SWAP1 REVERT JUMPDEST PUSH1 0x8 PUSH1 0x0 SWAP1 SLOAD SWAP1 PUSH2 0x100 EXP SWAP1 DIV PUSH1 0xFF AND ISZERO PUSH2 0xD0E JUMPI PUSH1 0x40 MLOAD PUSH32 0x8C379A000000000000000000000000000000000000000000000000000000000 DUP2 MSTORE PUSH1 0x4 ADD PUSH2 0xD05 SWAP1 PUSH2 0x17AA JUMP JUMPDEST PUSH1 0x40 MLOAD DUP1 SWAP2 SUB SWAP1 REVERT JUMPDEST PUSH1 0x0 PUSH1 0x7 PUSH1 0x0 CALLER PUSH20 0xFFFFFFFFFFFFFFFFFFFFFFFFFFFFFFFFFFFFFFFF AND PUSH20 0xFFFFFFFFFFFFFFFFFFFFFFFFFFFFFFFFFFFFFFFF AND DUP2 MSTORE PUSH1 0x20 ADD SWAP1 DUP2 MSTORE PUSH1 0x20 ADD PUSH1 0x0 KECCAK256 SLOAD PUSH1 0x6 PUSH1 0x0 CALLER PUSH20 0xFFFFFFFFFFFFFFFFFFFFFFFFFFFFFFFFFFFFFFFF AND PUSH20 0xFFFFFFFFFFFFFFFFFFFFFFFFFFFFFFFFFFFFFFFF AND DUP2 MSTORE PUSH1 0x20 ADD SWAP1 DUP2 MSTORE PUSH1 0x20 ADD PUSH1 0x0 KECCAK256 SLOAD PUSH2 0xD9A SWAP2 SWAP1 PUSH2 0x1503 JUMP JUMPDEST SWAP1 POP PUSH1 0x0 DUP2 GT PUSH2 0xDDF JUMPI PUSH1 0x40 MLOAD PUSH32 0x8C379A000000000000000000000000000000000000000000000000000000000 DUP2 MSTORE PUSH1 0x4 ADD PUSH2 0xDD6 SWAP1 PUSH2 0x1948 JUMP JUMPDEST PUSH1 0x40 MLOAD DUP1 SWAP2 SUB SWAP1 REVERT JUMPDEST DUP1 PUSH1 0x6 PUSH1 0x0 CALLER PUSH20 0xFFFFFFFFFFFFFFFFFFFFFFFFFFFFFFFFFFFFFFFF AND PUSH20 0xFFFFFFFFFFFFFFFFFFFFFFFFFFFFFFFFFFFFFFFF AND DUP2 MSTORE PUSH1 0x20 ADD SWAP1 DUP2 MSTORE PUSH1 0x20 ADD PUSH1 0x0 KECCAK256 PUSH1 0x0 DUP3 DUP3 SLOAD PUSH2 0xE2E SWAP2 SWAP1 PUSH2 0x1503 JUMP JUMPDEST SWAP3 POP POP DUP2 SWAP1 SSTORE POP PUSH1 0x0 CALLER PUSH20 0xFFFFFFFFFFFFFFFFFFFFFFFFFFFFFFFFFFFFFFFF AND DUP3 PUSH1 0x40 MLOAD PUSH2 0xE5B SWAP1 PUSH2 0x1568 JUMP JUMPDEST PUSH1 0x0 PUSH1 0x40 MLOAD DUP1 DUP4 SUB DUP2 DUP6 DUP8 GAS CALL SWAP3 POP POP POP RETURNDATASIZE DUP1 PUSH1 0x0 DUP2 EQ PUSH2 0xE98 JUMPI PUSH1 0x40 MLOAD SWAP2 POP PUSH1 0x1F NOT PUSH1 0x3F RETURNDATASIZE ADD AND DUP3 ADD PUSH1 0x40 MSTORE RETURNDATASIZE DUP3 MSTORE RETURNDATASIZE PUSH1 0x0 PUSH1 0x20 DUP5 ADD RETURNDATACOPY PUSH2 0xE9D JUMP JUMPDEST PUSH1 0x60 SWAP2 POP JUMPDEST POP POP SWAP1 POP DUP1 PUSH2 0xEE1 JUMPI PUSH1 0x40 MLOAD PUSH32 0x8C379A000000000000000000000000000000000000000000000000000000000 DUP2 MSTORE PUSH1 0x4 ADD PUSH2 0xED8 SWAP1 PUSH2 0x19B4 JUMP JUMPDEST PUSH1 0x40 MLOAD DUP1 SWAP2 SUB SWAP1 REVERT JUMPDEST POP POP JUMP JUMPDEST PUSH1 0x60 PUSH1 0x5 DUP1 SLOAD DUP1 PUSH1 0x20 MUL PUSH1 0x20 ADD PUSH1 0x40 MLOAD SWAP1 DUP2 ADD PUSH1 0x40 MSTORE DUP1 SWAP3 SWAP2 SWAP1 DUP2 DUP2 MSTORE PUSH1 0x20 ADD PUSH1 0x0 SWAP1 JUMPDEST DUP3 DUP3 LT ISZERO PUSH2 0xF9B JUMPI DUP4 DUP3 SWAP1 PUSH1 0x0 MSTORE PUSH1 0x20 PUSH1 0x0 KECCAK256 SWAP1 PUSH1 0x2 MUL ADD PUSH1 0x40 MLOAD DUP1 PUSH1 0x40 ADD PUSH1 0x40 MSTORE SWAP1 DUP2 PUSH1 0x0 DUP3 ADD PUSH1 0x0 SWAP1 SLOAD SWAP1 PUSH2 0x100 EXP SWAP1 DIV PUSH20 0xFFFFFFFFFFFFFFFFFFFFFFFFFFFFFFFFFFFFFFFF AND PUSH20 0xFFFFFFFFFFFFFFFFFFFFFFFFFFFFFFFFFFFFFFFF AND PUSH20 0xFFFFFFFFFFFFFFFFFFFFFFFFFFFFFFFFFFFFFFFF AND DUP2 MSTORE PUSH1 0x20 ADD PUSH1 0x1 DUP3 ADD SLOAD DUP2 MSTORE POP POP DUP2 MSTORE PUSH1 0x20 ADD SWAP1 PUSH1 0x1 ADD SWAP1 PUSH2 0xF09 JUMP JUMPDEST POP POP POP POP SWAP1 POP SWAP1 JUMP JUMPDEST PUSH1 0x8 PUSH1 0x0 SWAP1 SLOAD SWAP1 PUSH2 0x100 EXP SWAP1 DIV PUSH1 0xFF AND DUP2 JUMP JUMPDEST PUSH1 0x0 DUP2 SWAP1 POP SWAP2 SWAP1 POP JUMP JUMPDEST PUSH2 0xFCA DUP2 PUSH2 0xFB7 JUMP JUMPDEST DUP3 MSTORE POP POP JUMP JUMPDEST PUSH1 0x0 PUSH1 0x20 DUP3 ADD SWAP1 POP PUSH2 0xFE5 PUSH1 0x0 DUP4 ADD DUP5 PUSH2 0xFC1 JUMP JUMPDEST SWAP3 SWAP2 POP POP JUMP JUMPDEST PUSH1 0x0 DUP1 REVERT JUMPDEST PUSH1 0x0 PUSH20 0xFFFFFFFFFFFFFFFFFFFFFFFFFFFFFFFFFFFFFFFF DUP3 AND SWAP1 POP SWAP2 SWAP1 POP JUMP JUMPDEST PUSH1 0x0 PUSH2 0x101B DUP3 PUSH2 0xFF0 JUMP JUMPDEST SWAP1 POP SWAP2 SWAP1 POP JUMP JUMPDEST PUSH2 0x102B DUP2 PUSH2 0x1010 JUMP JUMPDEST DUP2 EQ PUSH2 0x1036 JUMPI PUSH1 0x0 DUP1 REVERT JUMPDEST POP JUMP JUMPDEST PUSH1 0x0 DUP2 CALLDATALOAD SWAP1 POP PUSH2 0x1048 DUP2 PUSH2 0x1022 JUMP JUMPDEST SWAP3 SWAP2 POP POP JUMP JUMPDEST PUSH1 0x0 PUSH1 0x20 DUP3 DUP5 SUB SLT ISZERO PUSH2 0x1064 JUMPI PUSH2 0x1063 PUSH2 0xFEB JUMP JUMPDEST JUMPDEST PUSH1 0x0 PUSH2 0x1072 DUP5 DUP3 DUP6 ADD PUSH2 0x1039 JUMP JUMPDEST SWAP2 POP POP SWAP3 SWAP2 POP POP JUMP JUMPDEST PUSH1 0x0 PUSH2 0x1086 DUP3 PUSH2 0xFF0 JUMP JUMPDEST SWAP1 POP SWAP2 SWAP1 POP JUMP JUMPDEST PUSH2 0x1096 DUP2 PUSH2 0x107B JUMP JUMPDEST DUP3 MSTORE POP POP JUMP JUMPDEST PUSH1 0x0 PUSH1 0x20 DUP3 ADD SWAP1 POP PUSH2 0x10B1 PUSH1 0x0 DUP4 ADD DUP5 PUSH2 0x108D JUMP JUMPDEST SWAP3 SWAP2 POP POP JUMP JUMPDEST PUSH2 0x10C0 DUP2 PUSH2 0xFB7 JUMP JUMPDEST DUP2 EQ PUSH2 0x10CB JUMPI PUSH1 0x0 DUP1 REVERT JUMPDEST POP JUMP JUMPDEST PUSH1 0x0 DUP2 CALLDATALOAD SWAP1 POP PUSH2 0x10DD DUP2 PUSH2 0x10B7 JUMP JUMPDEST SWAP3 SWAP2 POP POP JUMP JUMPDEST PUSH1 0x0 PUSH1 0x20 DUP3 DUP5 SUB SLT ISZERO PUSH2 0x10F9 JUMPI PUSH2 0x10F8 PUSH2 0xFEB JUMP JUMPDEST JUMPDEST PUSH1 0x0 PUSH2 0x1107 DUP5 DUP3 DUP6 ADD PUSH2 0x10CE JUMP JUMPDEST SWAP2 POP POP SWAP3 SWAP2 POP POP JUMP JUMPDEST PUSH2 0x1119 DUP2 PUSH2 0x1010 JUMP JUMPDEST DUP3 MSTORE POP POP JUMP JUMPDEST PUSH1 0x0 PUSH1 0x40 DUP3 ADD SWAP1 POP PUSH2 0x1134 PUSH1 0x0 DUP4 ADD DUP6 PUSH2 0x1110 JUMP JUMPDEST PUSH2 0x1141 PUSH1 0x20 DUP4 ADD DUP5 PUSH2 0xFC1 JUMP JUMPDEST SWAP4 SWAP3 POP POP POP JUMP JUMPDEST PUSH1 0x0 PUSH1 0x20 DUP3 ADD SWAP1 POP PUSH2 0x115D PUSH1 0x0 DUP4 ADD DUP5 PUSH2 0x1110 JUMP JUMPDEST SWAP3 SWAP2 POP POP JUMP JUMPDEST PUSH1 0x0 DUP2 MLOAD SWAP1 POP SWAP2 SWAP1 POP JUMP JUMPDEST PUSH1 0x0 DUP3 DUP3 MSTORE PUSH1 0x20 DUP3 ADD SWAP1 POP SWAP3 SWAP2 POP POP JUMP JUMPDEST PUSH1 0x0 DUP2 SWAP1 POP PUSH1 0x20 DUP3 ADD SWAP1 POP SWAP2 SWAP1 POP JUMP JUMPDEST PUSH2 0x1198 DUP2 PUSH2 0x1010 JUMP JUMPDEST DUP3 MSTORE POP POP JUMP JUMPDEST PUSH2 0x11A7 DUP2 PUSH2 0xFB7 JUMP JUMPDEST DUP3 MSTORE POP POP JUMP JUMPDEST PUSH1 0x40 DUP3 ADD PUSH1 0x0 DUP3 ADD MLOAD PUSH2 0x11C3 PUSH1 0x0 DUP6 ADD DUP3 PUSH2 0x118F JUMP JUMPDEST POP PUSH1 0x20 DUP3 ADD MLOAD PUSH2 0x11D6 PUSH1 0x20 DUP6 ADD DUP3 PUSH2 0x119E JUMP JUMPDEST POP POP POP POP JUMP JUMPDEST PUSH1 0x0 PUSH2 0x11E8 DUP4 DUP4 PUSH2 0x11AD JUMP JUMPDEST PUSH1 0x40 DUP4 ADD SWAP1 POP SWAP3 SWAP2 POP POP JUMP JUMPDEST PUSH1 0x0 PUSH1 0x20 DUP3 ADD SWAP1 POP SWAP2 SWAP1 POP JUMP JUMPDEST PUSH1 0x0 PUSH2 0x120C DUP3 PUSH2 0x1163 JUMP JUMPDEST PUSH2 0x1216 DUP2 DUP6 PUSH2 0x116E JUMP JUMPDEST SWAP4 POP PUSH2 0x1221 DUP4 PUSH2 0x117F JUMP JUMPDEST DUP1 PUSH1 0x0 JUMPDEST DUP4 DUP2 LT ISZERO PUSH2 0x1252 JUMPI DUP2 MLOAD PUSH2 0x1239 DUP9 DUP3 PUSH2 0x11DC JUMP JUMPDEST SWAP8 POP PUSH2 0x1244 DUP4 PUSH2 0x11F4 JUMP JUMPDEST SWAP3 POP POP PUSH1 0x1 DUP2 ADD SWAP1 POP PUSH2 0x1225 JUMP JUMPDEST POP DUP6 SWAP4 POP POP POP POP SWAP3 SWAP2 POP POP JUMP JUMPDEST PUSH1 0x0 PUSH1 0x20 DUP3 ADD SWAP1 POP DUP2 DUP2 SUB PUSH1 0x0 DUP4 ADD MSTORE PUSH2 0x1279 DUP2 DUP5 PUSH2 0x1201 JUMP JUMPDEST SWAP1 POP SWAP3 SWAP2 POP POP JUMP JUMPDEST PUSH1 0x0 DUP2 ISZERO ISZERO SWAP1 POP SWAP2 SWAP1 POP JUMP JUMPDEST PUSH2 0x1296 DUP2 PUSH2 0x1281 JUMP JUMPDEST DUP3 MSTORE POP POP JUMP JUMPDEST PUSH1 0x0 PUSH1 0x20 DUP3 ADD SWAP1 POP PUSH2 0x12B1 PUSH1 0x0 DUP4 ADD DUP5 PUSH2 0x128D JUMP JUMPDEST SWAP3 SWAP2 POP POP JUMP JUMPDEST PUSH1 0x0 DUP3 DUP3 MSTORE PUSH1 0x20 DUP3 ADD SWAP1 POP SWAP3 SWAP2 POP POP JUMP JUMPDEST PUSH32 0x536F6C6F20656C2070726F706965746172696F20707565646520656A65637574 PUSH1 0x0 DUP3 ADD MSTORE PUSH32 0x6172206573746F00000000000000000000000000000000000000000000000000 PUSH1 0x20 DUP3 ADD MSTORE POP JUMP JUMPDEST PUSH1 0x0 PUSH2 0x1324 PUSH1 0x27 DUP4 PUSH2 0x12B7 JUMP JUMPDEST SWAP2 POP PUSH2 0x132F DUP3 PUSH2 0x12C8 JUMP JUMPDEST PUSH1 0x40 DUP3 ADD SWAP1 POP SWAP2 SWAP1 POP JUMP JUMPDEST PUSH1 0x0 PUSH1 0x20 DUP3 ADD SWAP1 POP DUP2 DUP2 SUB PUSH1 0x0 DUP4 ADD MSTORE PUSH2 0x1353 DUP2 PUSH2 0x1317 JUMP JUMPDEST SWAP1 POP SWAP2 SWAP1 POP JUMP JUMPDEST PUSH32 0x4C61207375626173746120736967756520616374697661000000000000000000 PUSH1 0x0 DUP3 ADD MSTORE POP JUMP JUMPDEST PUSH1 0x0 PUSH2 0x1390 PUSH1 0x17 DUP4 PUSH2 0x12B7 JUMP JUMPDEST SWAP2 POP PUSH2 0x139B DUP3 PUSH2 0x135A JUMP JUMPDEST PUSH1 0x20 DUP3 ADD SWAP1 POP SWAP2 SWAP1 POP JUMP JUMPDEST PUSH1 0x0 PUSH1 0x20 DUP3 ADD SWAP1 POP DUP2 DUP2 SUB PUSH1 0x0 DUP4 ADD MSTORE PUSH2 0x13BF DUP2 PUSH2 0x1383 JUMP JUMPDEST SWAP1 POP SWAP2 SWAP1 POP JUMP JUMPDEST PUSH32 0x537562617374612079612066696E616C697A6164610000000000000000000000 PUSH1 0x0 DUP3 ADD MSTORE POP JUMP JUMPDEST PUSH1 0x0 PUSH2 0x13FC PUSH1 0x15 DUP4 PUSH2 0x12B7 JUMP JUMPDEST SWAP2 POP PUSH2 0x1407 DUP3 PUSH2 0x13C6 JUMP JUMPDEST PUSH1 0x20 DUP3 ADD SWAP1 POP SWAP2 SWAP1 POP JUMP JUMPDEST PUSH1 0x0 PUSH1 0x20 DUP3 ADD SWAP1 POP DUP2 DUP2 SUB PUSH1 0x0 DUP4 ADD MSTORE PUSH2 0x142B DUP2 PUSH2 0x13EF JUMP JUMPDEST SWAP1 POP SWAP2 SWAP1 POP JUMP JUMPDEST PUSH32 0x4E487B7100000000000000000000000000000000000000000000000000000000 PUSH1 0x0 MSTORE PUSH1 0x11 PUSH1 0x4 MSTORE PUSH1 0x24 PUSH1 0x0 REVERT JUMPDEST PUSH1 0x0 PUSH2 0x146C DUP3 PUSH2 0xFB7 JUMP JUMPDEST SWAP2 POP PUSH2 0x1477 DUP4 PUSH2 0xFB7 JUMP JUMPDEST SWAP3 POP DUP3 DUP3 MUL PUSH2 0x1485 DUP2 PUSH2 0xFB7 JUMP JUMPDEST SWAP2 POP DUP3 DUP3 DIV DUP5 EQ DUP4 ISZERO OR PUSH2 0x149C JUMPI PUSH2 0x149B PUSH2 0x1432 JUMP JUMPDEST JUMPDEST POP SWAP3 SWAP2 POP POP JUMP JUMPDEST PUSH32 0x4E487B7100000000000000000000000000000000000000000000000000000000 PUSH1 0x0 MSTORE PUSH1 0x12 PUSH1 0x4 MSTORE PUSH1 0x24 PUSH1 0x0 REVERT JUMPDEST PUSH1 0x0 PUSH2 0x14DD DUP3 PUSH2 0xFB7 JUMP JUMPDEST SWAP2 POP PUSH2 0x14E8 DUP4 PUSH2 0xFB7 JUMP JUMPDEST SWAP3 POP DUP3 PUSH2 0x14F8 JUMPI PUSH2 0x14F7 PUSH2 0x14A3 JUMP JUMPDEST JUMPDEST DUP3 DUP3 DIV SWAP1 POP SWAP3 SWAP2 POP POP JUMP JUMPDEST PUSH1 0x0 PUSH2 0x150E DUP3 PUSH2 0xFB7 JUMP JUMPDEST SWAP2 POP PUSH2 0x1519 DUP4 PUSH2 0xFB7 JUMP JUMPDEST SWAP3 POP DUP3 DUP3 SUB SWAP1 POP DUP2 DUP2 GT ISZERO PUSH2 0x1531 JUMPI PUSH2 0x1530 PUSH2 0x1432 JUMP JUMPDEST JUMPDEST SWAP3 SWAP2 POP POP JUMP JUMPDEST PUSH1 0x0 DUP2 SWAP1 POP SWAP3 SWAP2 POP POP JUMP JUMPDEST POP JUMP JUMPDEST PUSH1 0x0 PUSH2 0x1552 PUSH1 0x0 DUP4 PUSH2 0x1537 JUMP JUMPDEST SWAP2 POP PUSH2 0x155D DUP3 PUSH2 0x1542 JUMP JUMPDEST PUSH1 0x0 DUP3 ADD SWAP1 POP SWAP2 SWAP1 POP JUMP JUMPDEST PUSH1 0x0 PUSH2 0x1573 DUP3 PUSH2 0x1545 JUMP JUMPDEST SWAP2 POP DUP2 SWAP1 POP SWAP2 SWAP1 POP JUMP JUMPDEST PUSH32 0x4572726F7220616C207472616E73666572697220616C2070726F706965746172 PUSH1 0x0 DUP3 ADD MSTORE PUSH32 0x696F000000000000000000000000000000000000000000000000000000000000 PUSH1 0x20 DUP3 ADD MSTORE POP JUMP JUMPDEST PUSH1 0x0 PUSH2 0x15D9 PUSH1 0x22 DUP4 PUSH2 0x12B7 JUMP JUMPDEST SWAP2 POP PUSH2 0x15E4 DUP3 PUSH2 0x157D JUMP JUMPDEST PUSH1 0x40 DUP3 ADD SWAP1 POP SWAP2 SWAP1 POP JUMP JUMPDEST PUSH1 0x0 PUSH1 0x20 DUP3 ADD SWAP1 POP DUP2 DUP2 SUB PUSH1 0x0 DUP4 ADD MSTORE PUSH2 0x1608 DUP2 PUSH2 0x15CC JUMP JUMPDEST SWAP1 POP SWAP2 SWAP1 POP JUMP JUMPDEST PUSH32 0x4E487B7100000000000000000000000000000000000000000000000000000000 PUSH1 0x0 MSTORE PUSH1 0x32 PUSH1 0x4 MSTORE PUSH1 0x24 PUSH1 0x0 REVERT JUMPDEST PUSH32 0x4572726F7220616C206465766F6C766572207265656D626F6C736F0000000000 PUSH1 0x0 DUP3 ADD MSTORE POP JUMP JUMPDEST PUSH1 0x0 PUSH2 0x1674 PUSH1 0x1B DUP4 PUSH2 0x12B7 JUMP JUMPDEST SWAP2 POP PUSH2 0x167F DUP3 PUSH2 0x163E JUMP JUMPDEST PUSH1 0x20 DUP3 ADD SWAP1 POP SWAP2 SWAP1 POP JUMP JUMPDEST PUSH1 0x0 PUSH1 0x20 DUP3 ADD SWAP1 POP DUP2 DUP2 SUB PUSH1 0x0 DUP4 ADD MSTORE PUSH2 0x16A3 DUP2 PUSH2 0x1667 JUMP JUMPDEST SWAP1 POP SWAP2 SWAP1 POP JUMP JUMPDEST PUSH1 0x0 PUSH2 0x16B5 DUP3 PUSH2 0xFB7 JUMP JUMPDEST SWAP2 POP PUSH32 0xFFFFFFFFFFFFFFFFFFFFFFFFFFFFFFFFFFFFFFFFFFFFFFFFFFFFFFFFFFFFFFFF DUP3 SUB PUSH2 0x16E7 JUMPI PUSH2 0x16E6 PUSH2 0x1432 JUMP JUMPDEST JUMPDEST PUSH1 0x1 DUP3 ADD SWAP1 POP SWAP2 SWAP1 POP JUMP JUMPDEST PUSH32 0x4C6120737562617374612066696E616C697A6F00000000000000000000000000 PUSH1 0x0 DUP3 ADD MSTORE POP JUMP JUMPDEST PUSH1 0x0 PUSH2 0x1728 PUSH1 0x13 DUP4 PUSH2 0x12B7 JUMP JUMPDEST SWAP2 POP PUSH2 0x1733 DUP3 PUSH2 0x16F2 JUMP JUMPDEST PUSH1 0x20 DUP3 ADD SWAP1 POP SWAP2 SWAP1 POP JUMP JUMPDEST PUSH1 0x0 PUSH1 0x20 DUP3 ADD SWAP1 POP DUP2 DUP2 SUB PUSH1 0x0 DUP4 ADD MSTORE PUSH2 0x1757 DUP2 PUSH2 0x171B JUMP JUMPDEST SWAP1 POP SWAP2 SWAP1 POP JUMP JUMPDEST PUSH32 0x4C612073756261737461207961206675652066696E616C697A61646100000000 PUSH1 0x0 DUP3 ADD MSTORE POP JUMP JUMPDEST PUSH1 0x0 PUSH2 0x1794 PUSH1 0x1C DUP4 PUSH2 0x12B7 JUMP JUMPDEST SWAP2 POP PUSH2 0x179F DUP3 PUSH2 0x175E JUMP JUMPDEST PUSH1 0x20 DUP3 ADD SWAP1 POP SWAP2 SWAP1 POP JUMP JUMPDEST PUSH1 0x0 PUSH1 0x20 DUP3 ADD SWAP1 POP DUP2 DUP2 SUB PUSH1 0x0 DUP4 ADD MSTORE PUSH2 0x17C3 DUP2 PUSH2 0x1787 JUMP JUMPDEST SWAP1 POP SWAP2 SWAP1 POP JUMP JUMPDEST PUSH32 0x446562657320656E766961722045544800000000000000000000000000000000 PUSH1 0x0 DUP3 ADD MSTORE POP JUMP JUMPDEST PUSH1 0x0 PUSH2 0x1800 PUSH1 0x10 DUP4 PUSH2 0x12B7 JUMP JUMPDEST SWAP2 POP PUSH2 0x180B DUP3 PUSH2 0x17CA JUMP JUMPDEST PUSH1 0x20 DUP3 ADD SWAP1 POP SWAP2 SWAP1 POP JUMP JUMPDEST PUSH1 0x0 PUSH1 0x20 DUP3 ADD SWAP1 POP DUP2 DUP2 SUB PUSH1 0x0 DUP4 ADD MSTORE PUSH2 0x182F DUP2 PUSH2 0x17F3 JUMP JUMPDEST SWAP1 POP SWAP2 SWAP1 POP JUMP JUMPDEST PUSH1 0x0 PUSH2 0x1841 DUP3 PUSH2 0xFB7 JUMP JUMPDEST SWAP2 POP PUSH2 0x184C DUP4 PUSH2 0xFB7 JUMP JUMPDEST SWAP3 POP DUP3 DUP3 ADD SWAP1 POP DUP1 DUP3 GT ISZERO PUSH2 0x1864 JUMPI PUSH2 0x1863 PUSH2 0x1432 JUMP JUMPDEST JUMPDEST SWAP3 SWAP2 POP POP JUMP JUMPDEST PUSH32 0x4F666572746120646562652073657220616C206D656E6F73203525206D61796F PUSH1 0x0 DUP3 ADD MSTORE PUSH32 0x7220717565206C612061637475616C0000000000000000000000000000000000 PUSH1 0x20 DUP3 ADD MSTORE POP JUMP JUMPDEST PUSH1 0x0 PUSH2 0x18C6 PUSH1 0x2F DUP4 PUSH2 0x12B7 JUMP JUMPDEST SWAP2 POP PUSH2 0x18D1 DUP3 PUSH2 0x186A JUMP JUMPDEST PUSH1 0x40 DUP3 ADD SWAP1 POP SWAP2 SWAP1 POP JUMP JUMPDEST PUSH1 0x0 PUSH1 0x20 DUP3 ADD SWAP1 POP DUP2 DUP2 SUB PUSH1 0x0 DUP4 ADD MSTORE PUSH2 0x18F5 DUP2 PUSH2 0x18B9 JUMP JUMPDEST SWAP1 POP SWAP2 SWAP1 POP JUMP JUMPDEST PUSH32 0x4E6F20686179207265656D626F6C736F20646973706F6E69626C650000000000 PUSH1 0x0 DUP3 ADD MSTORE POP JUMP JUMPDEST PUSH1 0x0 PUSH2 0x1932 PUSH1 0x1B DUP4 PUSH2 0x12B7 JUMP JUMPDEST SWAP2 POP PUSH2 0x193D DUP3 PUSH2 0x18FC JUMP JUMPDEST PUSH1 0x20 DUP3 ADD SWAP1 POP SWAP2 SWAP1 POP JUMP JUMPDEST PUSH1 0x0 PUSH1 0x20 DUP3 ADD SWAP1 POP DUP2 DUP2 SUB PUSH1 0x0 DUP4 ADD MSTORE PUSH2 0x1961 DUP2 PUSH2 0x1925 JUMP JUMPDEST SWAP1 POP SWAP2 SWAP1 POP JUMP JUMPDEST PUSH32 0x4572726F7220616C207472616E736665726972207265656D626F6C736F000000 PUSH1 0x0 DUP3 ADD MSTORE POP JUMP JUMPDEST PUSH1 0x0 PUSH2 0x199E PUSH1 0x1D DUP4 PUSH2 0x12B7 JUMP JUMPDEST SWAP2 POP PUSH2 0x19A9 DUP3 PUSH2 0x1968 JUMP JUMPDEST PUSH1 0x20 DUP3 ADD SWAP1 POP SWAP2 SWAP1 POP JUMP JUMPDEST PUSH1 0x0 PUSH1 0x20 DUP3 ADD SWAP1 POP DUP2 DUP2 SUB PUSH1 0x0 DUP4 ADD MSTORE PUSH2 0x19CD DUP2 PUSH2 0x1991 JUMP JUMPDEST SWAP1 POP SWAP2 SWAP1 POP JUMP INVALID LOG2 PUSH5 0x6970667358 0x22 SLT KECCAK256 0x4F PUSH28 0x2E507A72471CEC2685473007FAF9BCF6C78A025DA892B84632B88E80 SWAP4 PUSH17 0x64736F6C63430008130033000000000000 "
		},
		"gasEstimates": {
			"creation": {
				"codeDepositCost": "1333200",
				"executionCost": "infinite",
				"totalCost": "infinite"
			},
			"external": {
				"constanteComision()": "2518",
				"depositosTotales(address)": "2881",
				"finalizada()": "2559",
				"finalizarSubasta()": "infinite",
				"ganador()": "2536",
				"mostrarGanador()": "4781",
				"mostrarOfertas()": "infinite",
				"ofertaGanadora()": "2497",
				"ofertar()": "infinite",
				"ofertas(uint256)": "infinite",
				"propietario()": "2556",
				"retirarReembolsoParcial()": "infinite",
				"tiempoFinalizacion()": "2475",
				"ultimaOferta(address)": "2837"
			}
		},
		"methodIdentifiers": {
			"constanteComision()": "4fa0f827",
			"depositosTotales(address)": "7fbd9b69",
			"finalizada()": "ffbfc189",
			"finalizarSubasta()": "0851eac2",
			"ganador()": "9114bde8",
			"mostrarGanador()": "753dcaeb",
			"mostrarOfertas()": "c442a99f",
			"ofertaGanadora()": "13a83eaf",
			"ofertar()": "3ec059d7",
			"ofertas(uint256)": "56afff7c",
			"propietario()": "3c4f81cd",
			"retirarReembolsoParcial()": "acdd4dba",
			"tiempoFinalizacion()": "0dfe4c35",
			"ultimaOferta(address)": "1c33274f"
		}
	},
	"abi": [
		{
			"inputs": [
				{
					"internalType": "uint256",
					"name": "_duracionMinutos",
					"type": "uint256"
				}
			],
			"stateMutability": "nonpayable",
			"type": "constructor"
		},
		{
			"anonymous": false,
			"inputs": [
				{
					"indexed": true,
					"internalType": "address",
					"name": "oferente",
					"type": "address"
				},
				{
					"indexed": false,
					"internalType": "uint256",
					"name": "monto",
					"type": "uint256"
				}
			],
			"name": "NuevaOferta",
			"type": "event"
		},
		{
			"anonymous": false,
			"inputs": [
				{
					"indexed": false,
					"internalType": "address",
					"name": "ganador",
					"type": "address"
				},
				{
					"indexed": false,
					"internalType": "uint256",
					"name": "monto",
					"type": "uint256"
				}
			],
			"name": "SubastaFinalizada",
			"type": "event"
		},
		{
			"inputs": [],
			"name": "constanteComision",
			"outputs": [
				{
					"internalType": "uint256",
					"name": "",
					"type": "uint256"
				}
			],
			"stateMutability": "view",
			"type": "function"
		},
		{
			"inputs": [
				{
					"internalType": "address",
					"name": "",
					"type": "address"
				}
			],
			"name": "depositosTotales",
			"outputs": [
				{
					"internalType": "uint256",
					"name": "",
					"type": "uint256"
				}
			],
			"stateMutability": "view",
			"type": "function"
		},
		{
			"inputs": [],
			"name": "finalizada",
			"outputs": [
				{
					"internalType": "bool",
					"name": "",
					"type": "bool"
				}
			],
			"stateMutability": "view",
			"type": "function"
		},
		{
			"inputs": [],
			"name": "finalizarSubasta",
			"outputs": [],
			"stateMutability": "nonpayable",
			"type": "function"
		},
		{
			"inputs": [],
			"name": "ganador",
			"outputs": [
				{
					"internalType": "address",
					"name": "",
					"type": "address"
				}
			],
			"stateMutability": "view",
			"type": "function"
		},
		{
			"inputs": [],
			"name": "mostrarGanador",
			"outputs": [
				{
					"internalType": "address",
					"name": "",
					"type": "address"
				},
				{
					"internalType": "uint256",
					"name": "",
					"type": "uint256"
				}
			],
			"stateMutability": "view",
			"type": "function"
		},
		{
			"inputs": [],
			"name": "mostrarOfertas",
			"outputs": [
				{
					"components": [
						{
							"internalType": "address",
							"name": "oferente",
							"type": "address"
						},
						{
							"internalType": "uint256",
							"name": "monto",
							"type": "uint256"
						}
					],
					"internalType": "struct Subasta.Oferta[]",
					"name": "",
					"type": "tuple[]"
				}
			],
			"stateMutability": "view",
			"type": "function"
		},
		{
			"inputs": [],
			"name": "ofertaGanadora",
			"outputs": [
				{
					"internalType": "uint256",
					"name": "",
					"type": "uint256"
				}
			],
			"stateMutability": "view",
			"type": "function"
		},
		{
			"inputs": [],
			"name": "ofertar",
			"outputs": [],
			"stateMutability": "payable",
			"type": "function"
		},
		{
			"inputs": [
				{
					"internalType": "uint256",
					"name": "",
					"type": "uint256"
				}
			],
			"name": "ofertas",
			"outputs": [
				{
					"internalType": "address",
					"name": "oferente",
					"type": "address"
				},
				{
					"internalType": "uint256",
					"name": "monto",
					"type": "uint256"
				}
			],
			"stateMutability": "view",
			"type": "function"
		},
		{
			"inputs": [],
			"name": "propietario",
			"outputs": [
				{
					"internalType": "address payable",
					"name": "",
					"type": "address"
				}
			],
			"stateMutability": "view",
			"type": "function"
		},
		{
			"inputs": [],
			"name": "retirarReembolsoParcial",
			"outputs": [],
			"stateMutability": "nonpayable",
			"type": "function"
		},
		{
			"inputs": [],
			"name": "tiempoFinalizacion",
			"outputs": [
				{
					"internalType": "uint256",
					"name": "",
					"type": "uint256"
				}
			],
			"stateMutability": "view",
			"type": "function"
		},
		{
			"inputs": [
				{
					"internalType": "address",
					"name": "",
					"type": "address"
				}
			],
			"name": "ultimaOferta",
			"outputs": [
				{
					"internalType": "uint256",
					"name": "",
					"type": "uint256"
				}
			],
			"stateMutability": "view",
			"type": "function"
		}
	]
}